{
	"ddt-project-ca1/contracts/foodDeliverySmartContract.sol": {
		"FoodDeliveryContract": {
			"abi": [
				{
					"anonymous": false,
					"inputs": [
						{
							"indexed": false,
							"internalType": "uint256",
							"name": "orderId",
							"type": "uint256"
						}
					],
					"name": "foodDelivered",
					"type": "event"
				},
				{
					"anonymous": false,
					"inputs": [
						{
							"indexed": false,
							"internalType": "uint256",
							"name": "orderId",
							"type": "uint256"
						}
					],
					"name": "foodOrdered",
					"type": "event"
				},
				{
					"inputs": [
						{
							"internalType": "uint256",
							"name": "",
							"type": "uint256"
						}
					],
					"name": "delivered",
					"outputs": [
						{
							"internalType": "bool",
							"name": "",
							"type": "bool"
						}
					],
					"stateMutability": "view",
					"type": "function"
				},
				{
					"inputs": [
						{
							"internalType": "uint256",
							"name": "orderId",
							"type": "uint256"
						}
					],
					"name": "isOrderDelivered",
					"outputs": [
						{
							"internalType": "bool",
							"name": "",
							"type": "bool"
						}
					],
					"stateMutability": "view",
					"type": "function"
				},
				{
					"inputs": [],
					"name": "orderFood",
					"outputs": [],
					"stateMutability": "payable",
					"type": "function"
				},
				{
					"inputs": [],
					"name": "orderIdCounter",
					"outputs": [
						{
							"internalType": "uint256",
							"name": "",
							"type": "uint256"
						}
					],
					"stateMutability": "view",
					"type": "function"
				},
				{
					"inputs": [
						{
							"internalType": "uint256",
							"name": "orderId",
							"type": "uint256"
						}
					],
					"name": "orderStatus",
					"outputs": [],
					"stateMutability": "nonpayable",
					"type": "function"
				},
				{
					"inputs": [
						{
							"internalType": "uint256",
							"name": "",
							"type": "uint256"
						}
					],
					"name": "orders",
					"outputs": [
						{
							"internalType": "bool",
							"name": "",
							"type": "bool"
						}
					],
					"stateMutability": "view",
					"type": "function"
				}
			],
			"devdoc": {
				"kind": "dev",
				"methods": {},
				"version": 1
			},
			"evm": {
				"assembly": "    /* \"ddt-project-ca1/contracts/foodDeliverySmartContract.sol\":89:2043  contract FoodDeliveryContract { // smart contract name, works like a class same as java\r... */\n  mstore(0x40, 0x80)\n  callvalue\n  dup1\n  iszero\n  tag_1\n  jumpi\n  0x00\n  dup1\n  revert\ntag_1:\n  pop\n  dataSize(sub_0)\n  dup1\n  dataOffset(sub_0)\n  0x00\n  codecopy\n  0x00\n  return\nstop\n\nsub_0: assembly {\n        /* \"ddt-project-ca1/contracts/foodDeliverySmartContract.sol\":89:2043  contract FoodDeliveryContract { // smart contract name, works like a class same as java\r... */\n      mstore(0x40, 0x80)\n      jumpi(tag_1, lt(calldatasize, 0x04))\n      shr(0xe0, calldataload(0x00))\n      dup1\n      0x429268ae\n      eq\n      tag_2\n      jumpi\n      dup1\n      0x4b5e4108\n      eq\n      tag_3\n      jumpi\n      dup1\n      0xa85c38ef\n      eq\n      tag_4\n      jumpi\n      dup1\n      0xbe374423\n      eq\n      tag_5\n      jumpi\n      dup1\n      0xbff49450\n      eq\n      tag_6\n      jumpi\n      dup1\n      0xf5fe6fa4\n      eq\n      tag_7\n      jumpi\n    tag_1:\n      0x00\n      dup1\n      revert\n        /* \"ddt-project-ca1/contracts/foodDeliverySmartContract.sol\":900:1209  function orderFood() external payable {\r... */\n    tag_2:\n      tag_8\n      tag_9\n      jump\t// in\n    tag_8:\n      stop\n        /* \"ddt-project-ca1/contracts/foodDeliverySmartContract.sol\":532:571  mapping(uint => bool) public  delivered */\n    tag_3:\n      callvalue\n      dup1\n      iszero\n      tag_10\n      jumpi\n      0x00\n      dup1\n      revert\n    tag_10:\n      pop\n      tag_11\n      0x04\n      dup1\n      calldatasize\n      sub\n      0x20\n      dup2\n      lt\n      iszero\n      tag_12\n      jumpi\n      0x00\n      dup1\n      revert\n    tag_12:\n      dup2\n      add\n      swap1\n      dup1\n      dup1\n      calldataload\n      swap1\n      0x20\n      add\n      swap1\n      swap3\n      swap2\n      swap1\n      pop\n      pop\n      pop\n      tag_13\n      jump\t// in\n    tag_11:\n      mload(0x40)\n      dup1\n      dup3\n      iszero\n      iszero\n      dup2\n      mstore\n      0x20\n      add\n      swap2\n      pop\n      pop\n      mload(0x40)\n      dup1\n      swap2\n      sub\n      swap1\n      return\n        /* \"ddt-project-ca1/contracts/foodDeliverySmartContract.sol\":486:521  mapping(uint => bool) public orders */\n    tag_4:\n      callvalue\n      dup1\n      iszero\n      tag_14\n      jumpi\n      0x00\n      dup1\n      revert\n    tag_14:\n      pop\n      tag_15\n      0x04\n      dup1\n      calldatasize\n      sub\n      0x20\n      dup2\n      lt\n      iszero\n      tag_16\n      jumpi\n      0x00\n      dup1\n      revert\n    tag_16:\n      dup2\n      add\n      swap1\n      dup1\n      dup1\n      calldataload\n      swap1\n      0x20\n      add\n      swap1\n      swap3\n      swap2\n      swap1\n      pop\n      pop\n      pop\n      tag_17\n      jump\t// in\n    tag_15:\n      mload(0x40)\n      dup1\n      dup3\n      iszero\n      iszero\n      dup2\n      mstore\n      0x20\n      add\n      swap2\n      pop\n      pop\n      mload(0x40)\n      dup1\n      swap2\n      sub\n      swap1\n      return\n        /* \"ddt-project-ca1/contracts/foodDeliverySmartContract.sol\":186:213  uint public  orderIdCounter */\n    tag_5:\n      callvalue\n      dup1\n      iszero\n      tag_18\n      jumpi\n      0x00\n      dup1\n      revert\n    tag_18:\n      pop\n      tag_19\n      tag_20\n      jump\t// in\n    tag_19:\n      mload(0x40)\n      dup1\n      dup3\n      dup2\n      mstore\n      0x20\n      add\n      swap2\n      pop\n      pop\n      mload(0x40)\n      dup1\n      swap2\n      sub\n      swap1\n      return\n        /* \"ddt-project-ca1/contracts/foodDeliverySmartContract.sol\":1437:1720  function orderStatus(uint orderId) external  {\r... */\n    tag_6:\n      callvalue\n      dup1\n      iszero\n      tag_21\n      jumpi\n      0x00\n      dup1\n      revert\n    tag_21:\n      pop\n      tag_22\n      0x04\n      dup1\n      calldatasize\n      sub\n      0x20\n      dup2\n      lt\n      iszero\n      tag_23\n      jumpi\n      0x00\n      dup1\n      revert\n    tag_23:\n      dup2\n      add\n      swap1\n      dup1\n      dup1\n      calldataload\n      swap1\n      0x20\n      add\n      swap1\n      swap3\n      swap2\n      swap1\n      pop\n      pop\n      pop\n      tag_24\n      jump\t// in\n    tag_22:\n      stop\n        /* \"ddt-project-ca1/contracts/foodDeliverySmartContract.sol\":1838:2040  function isOrderDelivered(uint orderId) external view returns (bool) {\r... */\n    tag_7:\n      callvalue\n      dup1\n      iszero\n      tag_25\n      jumpi\n      0x00\n      dup1\n      revert\n    tag_25:\n      pop\n      tag_26\n      0x04\n      dup1\n      calldatasize\n      sub\n      0x20\n      dup2\n      lt\n      iszero\n      tag_27\n      jumpi\n      0x00\n      dup1\n      revert\n    tag_27:\n      dup2\n      add\n      swap1\n      dup1\n      dup1\n      calldataload\n      swap1\n      0x20\n      add\n      swap1\n      swap3\n      swap2\n      swap1\n      pop\n      pop\n      pop\n      tag_28\n      jump\t// in\n    tag_26:\n      mload(0x40)\n      dup1\n      dup3\n      iszero\n      iszero\n      dup2\n      mstore\n      0x20\n      add\n      swap2\n      pop\n      pop\n      mload(0x40)\n      dup1\n      swap2\n      sub\n      swap1\n      return\n        /* \"ddt-project-ca1/contracts/foodDeliverySmartContract.sol\":900:1209  function orderFood() external payable {\r... */\n    tag_9:\n        /* \"ddt-project-ca1/contracts/foodDeliverySmartContract.sol\":949:963  orderIdCounter */\n      0x00\n      dup1\n        /* \"ddt-project-ca1/contracts/foodDeliverySmartContract.sol\":949:965  orderIdCounter++ */\n      dup2\n      sload\n      dup1\n      swap3\n      swap2\n      swap1\n      0x01\n      add\n      swap2\n      swap1\n      pop\n      sstore\n      pop\n        /* \"ddt-project-ca1/contracts/foodDeliverySmartContract.sol\":1023:1035  uint orderId */\n      0x00\n        /* \"ddt-project-ca1/contracts/foodDeliverySmartContract.sol\":1038:1052  orderIdCounter */\n      dup1\n      sload\n        /* \"ddt-project-ca1/contracts/foodDeliverySmartContract.sol\":1023:1052  uint orderId = orderIdCounter */\n      swap1\n      pop\n        /* \"ddt-project-ca1/contracts/foodDeliverySmartContract.sol\":1081:1085  true */\n      0x01\n        /* \"ddt-project-ca1/contracts/foodDeliverySmartContract.sol\":1063:1069  orders */\n      dup1\n        /* \"ddt-project-ca1/contracts/foodDeliverySmartContract.sol\":1063:1078  orders[orderId] */\n      0x00\n        /* \"ddt-project-ca1/contracts/foodDeliverySmartContract.sol\":1070:1077  orderId */\n      dup4\n        /* \"ddt-project-ca1/contracts/foodDeliverySmartContract.sol\":1063:1078  orders[orderId] */\n      dup2\n      mstore\n      0x20\n      add\n      swap1\n      dup2\n      mstore\n      0x20\n      add\n      0x00\n      keccak256\n      0x00\n        /* \"ddt-project-ca1/contracts/foodDeliverySmartContract.sol\":1063:1085  orders[orderId] = true */\n      0x0100\n      exp\n      dup2\n      sload\n      dup2\n      0xff\n      mul\n      not\n      and\n      swap1\n      dup4\n      iszero\n      iszero\n      mul\n      or\n      swap1\n      sstore\n      pop\n        /* \"ddt-project-ca1/contracts/foodDeliverySmartContract.sol\":1183:1205  foodDelivered(orderId) */\n      0x78a25950410b9e994ad7a995602325d2abf2914b109c576644d4beffc2ea14ef\n        /* \"ddt-project-ca1/contracts/foodDeliverySmartContract.sol\":1197:1204  orderId */\n      dup2\n        /* \"ddt-project-ca1/contracts/foodDeliverySmartContract.sol\":1183:1205  foodDelivered(orderId) */\n      mload(0x40)\n      dup1\n      dup3\n      dup2\n      mstore\n      0x20\n      add\n      swap2\n      pop\n      pop\n      mload(0x40)\n      dup1\n      swap2\n      sub\n      swap1\n      log1\n        /* \"ddt-project-ca1/contracts/foodDeliverySmartContract.sol\":900:1209  function orderFood() external payable {\r... */\n      pop\n      jump\t// out\n        /* \"ddt-project-ca1/contracts/foodDeliverySmartContract.sol\":532:571  mapping(uint => bool) public  delivered */\n    tag_13:\n      mstore(0x20, 0x02)\n      dup1\n      0x00\n      mstore\n      keccak256(0x00, 0x40)\n      0x00\n      swap2\n      pop\n      sload\n      swap1\n      0x0100\n      exp\n      swap1\n      div\n      0xff\n      and\n      dup2\n      jump\t// out\n        /* \"ddt-project-ca1/contracts/foodDeliverySmartContract.sol\":486:521  mapping(uint => bool) public orders */\n    tag_17:\n      mstore(0x20, 0x01)\n      dup1\n      0x00\n      mstore\n      keccak256(0x00, 0x40)\n      0x00\n      swap2\n      pop\n      sload\n      swap1\n      0x0100\n      exp\n      swap1\n      div\n      0xff\n      and\n      dup2\n      jump\t// out\n        /* \"ddt-project-ca1/contracts/foodDeliverySmartContract.sol\":186:213  uint public  orderIdCounter */\n    tag_20:\n      sload(0x00)\n      dup2\n      jump\t// out\n        /* \"ddt-project-ca1/contracts/foodDeliverySmartContract.sol\":1437:1720  function orderStatus(uint orderId) external  {\r... */\n    tag_24:\n        /* \"ddt-project-ca1/contracts/foodDeliverySmartContract.sol\":1501:1507  orders */\n      0x01\n        /* \"ddt-project-ca1/contracts/foodDeliverySmartContract.sol\":1501:1516  orders[orderId] */\n      0x00\n        /* \"ddt-project-ca1/contracts/foodDeliverySmartContract.sol\":1508:1515  orderId */\n      dup3\n        /* \"ddt-project-ca1/contracts/foodDeliverySmartContract.sol\":1501:1516  orders[orderId] */\n      dup2\n      mstore\n      0x20\n      add\n      swap1\n      dup2\n      mstore\n      0x20\n      add\n      0x00\n      keccak256\n      0x00\n      swap1\n      sload\n      swap1\n      0x0100\n      exp\n      swap1\n      div\n      0xff\n      and\n        /* \"ddt-project-ca1/contracts/foodDeliverySmartContract.sol\":1493:1517  require(orders[orderId]) */\n      tag_31\n      jumpi\n      0x00\n      dup1\n      revert\n    tag_31:\n        /* \"ddt-project-ca1/contracts/foodDeliverySmartContract.sol\":1537:1546  delivered */\n      0x02\n        /* \"ddt-project-ca1/contracts/foodDeliverySmartContract.sol\":1537:1555  delivered[orderId] */\n      0x00\n        /* \"ddt-project-ca1/contracts/foodDeliverySmartContract.sol\":1547:1554  orderId */\n      dup3\n        /* \"ddt-project-ca1/contracts/foodDeliverySmartContract.sol\":1537:1555  delivered[orderId] */\n      dup2\n      mstore\n      0x20\n      add\n      swap1\n      dup2\n      mstore\n      0x20\n      add\n      0x00\n      keccak256\n      0x00\n      swap1\n      sload\n      swap1\n      0x0100\n      exp\n      swap1\n      div\n      0xff\n      and\n        /* \"ddt-project-ca1/contracts/foodDeliverySmartContract.sol\":1536:1555  !delivered[orderId] */\n      iszero\n        /* \"ddt-project-ca1/contracts/foodDeliverySmartContract.sol\":1528:1556  require(!delivered[orderId]) */\n      tag_32\n      jumpi\n      0x00\n      dup1\n      revert\n    tag_32:\n        /* \"ddt-project-ca1/contracts/foodDeliverySmartContract.sol\":1588:1592  true */\n      0x01\n        /* \"ddt-project-ca1/contracts/foodDeliverySmartContract.sol\":1567:1576  delivered */\n      0x02\n        /* \"ddt-project-ca1/contracts/foodDeliverySmartContract.sol\":1567:1585  delivered[orderId] */\n      0x00\n        /* \"ddt-project-ca1/contracts/foodDeliverySmartContract.sol\":1577:1584  orderId */\n      dup4\n        /* \"ddt-project-ca1/contracts/foodDeliverySmartContract.sol\":1567:1585  delivered[orderId] */\n      dup2\n      mstore\n      0x20\n      add\n      swap1\n      dup2\n      mstore\n      0x20\n      add\n      0x00\n      keccak256\n      0x00\n        /* \"ddt-project-ca1/contracts/foodDeliverySmartContract.sol\":1567:1592  delivered[orderId] = true */\n      0x0100\n      exp\n      dup2\n      sload\n      dup2\n      0xff\n      mul\n      not\n      and\n      swap1\n      dup4\n      iszero\n      iszero\n      mul\n      or\n      swap1\n      sstore\n      pop\n        /* \"ddt-project-ca1/contracts/foodDeliverySmartContract.sol\":1690:1712  foodDelivered(orderId) */\n      0x78a25950410b9e994ad7a995602325d2abf2914b109c576644d4beffc2ea14ef\n        /* \"ddt-project-ca1/contracts/foodDeliverySmartContract.sol\":1704:1711  orderId */\n      dup2\n        /* \"ddt-project-ca1/contracts/foodDeliverySmartContract.sol\":1690:1712  foodDelivered(orderId) */\n      mload(0x40)\n      dup1\n      dup3\n      dup2\n      mstore\n      0x20\n      add\n      swap2\n      pop\n      pop\n      mload(0x40)\n      dup1\n      swap2\n      sub\n      swap1\n      log1\n        /* \"ddt-project-ca1/contracts/foodDeliverySmartContract.sol\":1437:1720  function orderStatus(uint orderId) external  {\r... */\n      pop\n      jump\t// out\n        /* \"ddt-project-ca1/contracts/foodDeliverySmartContract.sol\":1838:2040  function isOrderDelivered(uint orderId) external view returns (bool) {\r... */\n    tag_28:\n        /* \"ddt-project-ca1/contracts/foodDeliverySmartContract.sol\":1901:1905  bool */\n      0x00\n        /* \"ddt-project-ca1/contracts/foodDeliverySmartContract.sol\":1925:1934  delivered */\n      0x02\n        /* \"ddt-project-ca1/contracts/foodDeliverySmartContract.sol\":1925:1943  delivered[orderId] */\n      0x00\n        /* \"ddt-project-ca1/contracts/foodDeliverySmartContract.sol\":1935:1942  orderId */\n      dup4\n        /* \"ddt-project-ca1/contracts/foodDeliverySmartContract.sol\":1925:1943  delivered[orderId] */\n      dup2\n      mstore\n      0x20\n      add\n      swap1\n      dup2\n      mstore\n      0x20\n      add\n      0x00\n      keccak256\n      0x00\n      swap1\n      sload\n      swap1\n      0x0100\n      exp\n      swap1\n      div\n      0xff\n      and\n        /* \"ddt-project-ca1/contracts/foodDeliverySmartContract.sol\":1918:1943  return delivered[orderId] */\n      swap1\n      pop\n        /* \"ddt-project-ca1/contracts/foodDeliverySmartContract.sol\":1838:2040  function isOrderDelivered(uint orderId) external view returns (bool) {\r... */\n      swap2\n      swap1\n      pop\n      jump\t// out\n\n    auxdata: 0xa2646970667358221220b597ad44a73e2d86e7e0fc448627b2683175a8ecda4f58191e99592e4bd1413764736f6c63430007050033\n}\n",
				"bytecode": {
					"linkReferences": {},
					"object": "608060405234801561001057600080fd5b5061039a806100206000396000f3fe6080604052600436106100555760003560e01c8063429268ae1461005a5780634b5e410814610064578063a85c38ef146100b5578063be37442314610106578063bff4945014610131578063f5fe6fa41461016c575b600080fd5b6100626101bd565b005b34801561007057600080fd5b5061009d6004803603602081101561008757600080fd5b8101908080359060200190929190505050610239565b60405180821515815260200191505060405180910390f35b3480156100c157600080fd5b506100ee600480360360208110156100d857600080fd5b8101908080359060200190929190505050610259565b60405180821515815260200191505060405180910390f35b34801561011257600080fd5b5061011b610279565b6040518082815260200191505060405180910390f35b34801561013d57600080fd5b5061016a6004803603602081101561015457600080fd5b810190808035906020019092919050505061027f565b005b34801561017857600080fd5b506101a56004803603602081101561018f57600080fd5b810190808035906020019092919050505061033a565b60405180821515815260200191505060405180910390f35b6000808154809291906001019190505550600080549050600180600083815260200190815260200160002060006101000a81548160ff0219169083151502179055507f78a25950410b9e994ad7a995602325d2abf2914b109c576644d4beffc2ea14ef816040518082815260200191505060405180910390a150565b60026020528060005260406000206000915054906101000a900460ff1681565b60016020528060005260406000206000915054906101000a900460ff1681565b60005481565b6001600082815260200190815260200160002060009054906101000a900460ff166102a957600080fd5b6002600082815260200190815260200160002060009054906101000a900460ff16156102d457600080fd5b60016002600083815260200190815260200160002060006101000a81548160ff0219169083151502179055507f78a25950410b9e994ad7a995602325d2abf2914b109c576644d4beffc2ea14ef816040518082815260200191505060405180910390a150565b60006002600083815260200190815260200160002060009054906101000a900460ff16905091905056fea2646970667358221220b597ad44a73e2d86e7e0fc448627b2683175a8ecda4f58191e99592e4bd1413764736f6c63430007050033",
					"opcodes": "PUSH1 0x80 PUSH1 0x40 MSTORE CALLVALUE DUP1 ISZERO PUSH2 0x10 JUMPI PUSH1 0x0 DUP1 REVERT JUMPDEST POP PUSH2 0x39A DUP1 PUSH2 0x20 PUSH1 0x0 CODECOPY PUSH1 0x0 RETURN INVALID PUSH1 0x80 PUSH1 0x40 MSTORE PUSH1 0x4 CALLDATASIZE LT PUSH2 0x55 JUMPI PUSH1 0x0 CALLDATALOAD PUSH1 0xE0 SHR DUP1 PUSH4 0x429268AE EQ PUSH2 0x5A JUMPI DUP1 PUSH4 0x4B5E4108 EQ PUSH2 0x64 JUMPI DUP1 PUSH4 0xA85C38EF EQ PUSH2 0xB5 JUMPI DUP1 PUSH4 0xBE374423 EQ PUSH2 0x106 JUMPI DUP1 PUSH4 0xBFF49450 EQ PUSH2 0x131 JUMPI DUP1 PUSH4 0xF5FE6FA4 EQ PUSH2 0x16C JUMPI JUMPDEST PUSH1 0x0 DUP1 REVERT JUMPDEST PUSH2 0x62 PUSH2 0x1BD JUMP JUMPDEST STOP JUMPDEST CALLVALUE DUP1 ISZERO PUSH2 0x70 JUMPI PUSH1 0x0 DUP1 REVERT JUMPDEST POP PUSH2 0x9D PUSH1 0x4 DUP1 CALLDATASIZE SUB PUSH1 0x20 DUP2 LT ISZERO PUSH2 0x87 JUMPI PUSH1 0x0 DUP1 REVERT JUMPDEST DUP2 ADD SWAP1 DUP1 DUP1 CALLDATALOAD SWAP1 PUSH1 0x20 ADD SWAP1 SWAP3 SWAP2 SWAP1 POP POP POP PUSH2 0x239 JUMP JUMPDEST PUSH1 0x40 MLOAD DUP1 DUP3 ISZERO ISZERO DUP2 MSTORE PUSH1 0x20 ADD SWAP2 POP POP PUSH1 0x40 MLOAD DUP1 SWAP2 SUB SWAP1 RETURN JUMPDEST CALLVALUE DUP1 ISZERO PUSH2 0xC1 JUMPI PUSH1 0x0 DUP1 REVERT JUMPDEST POP PUSH2 0xEE PUSH1 0x4 DUP1 CALLDATASIZE SUB PUSH1 0x20 DUP2 LT ISZERO PUSH2 0xD8 JUMPI PUSH1 0x0 DUP1 REVERT JUMPDEST DUP2 ADD SWAP1 DUP1 DUP1 CALLDATALOAD SWAP1 PUSH1 0x20 ADD SWAP1 SWAP3 SWAP2 SWAP1 POP POP POP PUSH2 0x259 JUMP JUMPDEST PUSH1 0x40 MLOAD DUP1 DUP3 ISZERO ISZERO DUP2 MSTORE PUSH1 0x20 ADD SWAP2 POP POP PUSH1 0x40 MLOAD DUP1 SWAP2 SUB SWAP1 RETURN JUMPDEST CALLVALUE DUP1 ISZERO PUSH2 0x112 JUMPI PUSH1 0x0 DUP1 REVERT JUMPDEST POP PUSH2 0x11B PUSH2 0x279 JUMP JUMPDEST PUSH1 0x40 MLOAD DUP1 DUP3 DUP2 MSTORE PUSH1 0x20 ADD SWAP2 POP POP PUSH1 0x40 MLOAD DUP1 SWAP2 SUB SWAP1 RETURN JUMPDEST CALLVALUE DUP1 ISZERO PUSH2 0x13D JUMPI PUSH1 0x0 DUP1 REVERT JUMPDEST POP PUSH2 0x16A PUSH1 0x4 DUP1 CALLDATASIZE SUB PUSH1 0x20 DUP2 LT ISZERO PUSH2 0x154 JUMPI PUSH1 0x0 DUP1 REVERT JUMPDEST DUP2 ADD SWAP1 DUP1 DUP1 CALLDATALOAD SWAP1 PUSH1 0x20 ADD SWAP1 SWAP3 SWAP2 SWAP1 POP POP POP PUSH2 0x27F JUMP JUMPDEST STOP JUMPDEST CALLVALUE DUP1 ISZERO PUSH2 0x178 JUMPI PUSH1 0x0 DUP1 REVERT JUMPDEST POP PUSH2 0x1A5 PUSH1 0x4 DUP1 CALLDATASIZE SUB PUSH1 0x20 DUP2 LT ISZERO PUSH2 0x18F JUMPI PUSH1 0x0 DUP1 REVERT JUMPDEST DUP2 ADD SWAP1 DUP1 DUP1 CALLDATALOAD SWAP1 PUSH1 0x20 ADD SWAP1 SWAP3 SWAP2 SWAP1 POP POP POP PUSH2 0x33A JUMP JUMPDEST PUSH1 0x40 MLOAD DUP1 DUP3 ISZERO ISZERO DUP2 MSTORE PUSH1 0x20 ADD SWAP2 POP POP PUSH1 0x40 MLOAD DUP1 SWAP2 SUB SWAP1 RETURN JUMPDEST PUSH1 0x0 DUP1 DUP2 SLOAD DUP1 SWAP3 SWAP2 SWAP1 PUSH1 0x1 ADD SWAP2 SWAP1 POP SSTORE POP PUSH1 0x0 DUP1 SLOAD SWAP1 POP PUSH1 0x1 DUP1 PUSH1 0x0 DUP4 DUP2 MSTORE PUSH1 0x20 ADD SWAP1 DUP2 MSTORE PUSH1 0x20 ADD PUSH1 0x0 KECCAK256 PUSH1 0x0 PUSH2 0x100 EXP DUP2 SLOAD DUP2 PUSH1 0xFF MUL NOT AND SWAP1 DUP4 ISZERO ISZERO MUL OR SWAP1 SSTORE POP PUSH32 0x78A25950410B9E994AD7A995602325D2ABF2914B109C576644D4BEFFC2EA14EF DUP2 PUSH1 0x40 MLOAD DUP1 DUP3 DUP2 MSTORE PUSH1 0x20 ADD SWAP2 POP POP PUSH1 0x40 MLOAD DUP1 SWAP2 SUB SWAP1 LOG1 POP JUMP JUMPDEST PUSH1 0x2 PUSH1 0x20 MSTORE DUP1 PUSH1 0x0 MSTORE PUSH1 0x40 PUSH1 0x0 KECCAK256 PUSH1 0x0 SWAP2 POP SLOAD SWAP1 PUSH2 0x100 EXP SWAP1 DIV PUSH1 0xFF AND DUP2 JUMP JUMPDEST PUSH1 0x1 PUSH1 0x20 MSTORE DUP1 PUSH1 0x0 MSTORE PUSH1 0x40 PUSH1 0x0 KECCAK256 PUSH1 0x0 SWAP2 POP SLOAD SWAP1 PUSH2 0x100 EXP SWAP1 DIV PUSH1 0xFF AND DUP2 JUMP JUMPDEST PUSH1 0x0 SLOAD DUP2 JUMP JUMPDEST PUSH1 0x1 PUSH1 0x0 DUP3 DUP2 MSTORE PUSH1 0x20 ADD SWAP1 DUP2 MSTORE PUSH1 0x20 ADD PUSH1 0x0 KECCAK256 PUSH1 0x0 SWAP1 SLOAD SWAP1 PUSH2 0x100 EXP SWAP1 DIV PUSH1 0xFF AND PUSH2 0x2A9 JUMPI PUSH1 0x0 DUP1 REVERT JUMPDEST PUSH1 0x2 PUSH1 0x0 DUP3 DUP2 MSTORE PUSH1 0x20 ADD SWAP1 DUP2 MSTORE PUSH1 0x20 ADD PUSH1 0x0 KECCAK256 PUSH1 0x0 SWAP1 SLOAD SWAP1 PUSH2 0x100 EXP SWAP1 DIV PUSH1 0xFF AND ISZERO PUSH2 0x2D4 JUMPI PUSH1 0x0 DUP1 REVERT JUMPDEST PUSH1 0x1 PUSH1 0x2 PUSH1 0x0 DUP4 DUP2 MSTORE PUSH1 0x20 ADD SWAP1 DUP2 MSTORE PUSH1 0x20 ADD PUSH1 0x0 KECCAK256 PUSH1 0x0 PUSH2 0x100 EXP DUP2 SLOAD DUP2 PUSH1 0xFF MUL NOT AND SWAP1 DUP4 ISZERO ISZERO MUL OR SWAP1 SSTORE POP PUSH32 0x78A25950410B9E994AD7A995602325D2ABF2914B109C576644D4BEFFC2EA14EF DUP2 PUSH1 0x40 MLOAD DUP1 DUP3 DUP2 MSTORE PUSH1 0x20 ADD SWAP2 POP POP PUSH1 0x40 MLOAD DUP1 SWAP2 SUB SWAP1 LOG1 POP JUMP JUMPDEST PUSH1 0x0 PUSH1 0x2 PUSH1 0x0 DUP4 DUP2 MSTORE PUSH1 0x20 ADD SWAP1 DUP2 MSTORE PUSH1 0x20 ADD PUSH1 0x0 KECCAK256 PUSH1 0x0 SWAP1 SLOAD SWAP1 PUSH2 0x100 EXP SWAP1 DIV PUSH1 0xFF AND SWAP1 POP SWAP2 SWAP1 POP JUMP INVALID LOG2 PUSH5 0x6970667358 0x22 SLT KECCAK256 0xB5 SWAP8 0xAD DIFFICULTY 0xA7 RETURNDATACOPY 0x2D DUP7 0xE7 0xE0 0xFC DIFFICULTY DUP7 0x27 0xB2 PUSH9 0x3175A8ECDA4F58191E SWAP10 MSIZE 0x2E 0x4B 0xD1 COINBASE CALLDATACOPY PUSH5 0x736F6C6343 STOP SMOD SDIV STOP CALLER "
				},
				"gasEstimates": {
					"creation": {
						"codeDepositCost": "184400",
						"executionCost": "226",
						"totalCost": "184626"
					},
					"external": {
						"delivered(uint256)": "1194",
						"isOrderDelivered(uint256)": "1308",
						"orderFood()": "43760",
						"orderIdCounter()": "1049",
						"orderStatus(uint256)": "24171",
						"orders(uint256)": "1216"
					}
				},
				"methodIdentifiers": {
					"delivered(uint256)": "4b5e4108",
					"isOrderDelivered(uint256)": "f5fe6fa4",
					"orderFood()": "429268ae",
					"orderIdCounter()": "be374423",
					"orderStatus(uint256)": "bff49450",
					"orders(uint256)": "a85c38ef"
				}
			},
			"storageLayout": {
				"storage": [
					{
						"astId": 3,
						"contract": "ddt-project-ca1/contracts/foodDeliverySmartContract.sol:FoodDeliveryContract",
						"label": "orderIdCounter",
						"offset": 0,
						"slot": "0",
						"type": "t_uint256"
					},
					{
						"astId": 7,
						"contract": "ddt-project-ca1/contracts/foodDeliverySmartContract.sol:FoodDeliveryContract",
						"label": "orders",
						"offset": 0,
						"slot": "1",
						"type": "t_mapping(t_uint256,t_bool)"
					},
					{
						"astId": 11,
						"contract": "ddt-project-ca1/contracts/foodDeliverySmartContract.sol:FoodDeliveryContract",
						"label": "delivered",
						"offset": 0,
						"slot": "2",
						"type": "t_mapping(t_uint256,t_bool)"
					}
				],
				"types": {
					"t_bool": {
						"encoding": "inplace",
						"label": "bool",
						"numberOfBytes": "1"
					},
					"t_mapping(t_uint256,t_bool)": {
						"encoding": "mapping",
						"key": "t_uint256",
						"label": "mapping(uint256 => bool)",
						"numberOfBytes": "32",
						"value": "t_bool"
					},
					"t_uint256": {
						"encoding": "inplace",
						"label": "uint256",
						"numberOfBytes": "32"
					}
				}
			},
			"userdoc": {
				"kind": "user",
				"methods": {},
				"version": 1
			}
		}
	}
}